:100000000C9462000C948A000C948A000C948A0070
:100010000C948A000C948A000C948A000C948A0038
:100020000C948A000C948A000C948A000C948A0028
:100030000C948A000C948A000C948A000C948A0018
:100040000C946B020C948A000C94DB020C94B502A5
:100050000C948A000C948A000C948A000C948A00F8
:100060000C948A000C948A000000000023002600F3
:10007000290000000008000201000003040700003E
:1000800000000000000000000000250028002B00F8
:1000900000000000240027002A00040404040404D3
:1000A0000404020202020202030303030303010227
:1000B00004081020408001020408102001020408F6
:1000C00010203C0411241FBECFEFD8E0DEBFCDBF0F
:1000D00011E0A0E0B1E0ECEEF8E002C005900D9276
:1000E000A231B107D9F721E0A2E1B1E001C01D9230
:1000F000AA3BB207E1F710E0C2E6D0E004C02197C6
:10010000FE010E946904C136D107C9F70E940D03A0
:100110000C9474040C940000CF93DF9390E0FC01E6
:10012000E255FF4F2491FC01E656FF4F849188234E
:10013000C1F090E0880F991FFC01E057FF4FC59177
:10014000D491FC01EA57FF4FA591B4919FB7F89461
:100150008881E22FE0958E2388838C91E823EC93AD
:100160009FBFDF91CF91089590E0FC01EE58FF4FC3
:100170002491FC01E255FF4F3491FC01E656FF4FFC
:10018000E491EE23B9F1222339F1233091F038F4D0
:100190002130A9F0223001F584B58F7D12C02730BF
:1001A00091F02830A1F02430B9F4809180008F7D47
:1001B00003C0809180008F77809380000DC084B54C
:1001C0008F7784BD09C08091B0008F7703C0809184
:1001D000B0008F7D8093B000F0E0EE0FFF1FE85974
:1001E000FF4FA591B491EC913E2381E090E021F482
:1001F00080E0089580E090E008953FB7F894809102
:10020000190190911A01A0911B01B0911C0126B512
:10021000A89B05C02F3F19F00196A11DB11D3FBF3E
:10022000BA2FA92F982F8827820F911DA11DB11DCC
:10023000BC01CD0142E0660F771F881F991F4A95C8
:10024000D1F708958F929F92AF92BF92CF92DF9293
:10025000EF92FF920E94FD004B015C0188EEC82ED8
:1002600083E0D82EE12CF12C0E94FD00DC01CB01B3
:1002700088199909AA09BB09883E9340A105B105CF
:1002800058F021E0C21AD108E108F10888EE880E82
:1002900083E0981EA11CB11CC114D104E104F10437
:1002A00019F7FF90EF90DF90CF90BF90AF909F90A5
:1002B0008F900895CF92DF92EF92FF920F931F934A
:1002C000CF93DF936C017A018B01C0E0D0E0CE15B3
:1002D000DF0589F0D8016D918D01D601ED91FC917A
:1002E0000190F081E02DC6010995892B11F47E0162
:1002F00002C02196ECCFC701DF91CF911F910F91E2
:10030000FF90EF90DF90CF900895089580E090E007
:100310000895FC01538D448D252F30E0842F90E00B
:10032000821B930B541710F0CF96089501970895F0
:10033000FC01918D828D981761F0828DDF01A80FED
:10034000B11D5D968C91928D9F5F9F73928F90E00F
:1003500008958FEF9FEF0895FC01918D828D98177E
:1003600031F0828DE80FF11D858D90E008958FEFBB
:100370009FEF0895FC01918D228D892F90E0805C84
:100380009F4F821B91098F73992708958DE191E00A
:100390000E94BA0121E0892B09F420E0822F089500
:1003A000FC01848DDF01A80FB11DA35ABF4F2C9112
:1003B000848D90E001968F739927848FA689B789E1
:1003C0002C93A089B1898C9180648C93938D848DBA
:1003D000981306C00288F389E02D80818F7D808389
:1003E0000895EF92FF920F931F93CF93DF93EC0149
:1003F00081E0888F9B8D8C8D981305C0E889F989E1
:10040000808185FD24C0F62E0B8D10E00F5F1F4FFD
:100410000F731127E02E8C8DE8120CC00FB607FC6D
:10042000FACFE889F989808185FFF5CFCE010E9456
:10043000D001F1CF8B8DFE01E80FF11DE35AFF4F84
:10044000F0820B8FEA89FB898081806207C0EE8988
:10045000FF896083E889F98980818064808381E0F5
:1004600090E0DF91CF911F910F91FF90EF90089551
:10047000682F8DE191E00C94F101CF93DF93EC01B3
:10048000888D8823C9F0EA89FB89808185FD05C0B4
:10049000A889B9898C9186FD0FC00FB607FCF5CFEE
:1004A000808185FFF2CFA889B9898C9185FFEDCF36
:1004B000CE010E94D001E7CFDF91CF91089580E077
:1004C00090E0892B29F00E94C60181110C94000054
:1004D00008950E946F041F920F920FB60F9211247D
:1004E0002F933F938F939F93AF93BF938091150169
:1004F00090911601A0911701B0911801309114014B
:1005000023E0230F2D3720F40196A11DB11D05C056
:1005100026E8230F0296A11DB11D2093140180939C
:10052000150190931601A0931701B09318018091C3
:10053000190190911A01A0911B01B0911C01019623
:10054000A11DB11D8093190190931A01A0931B0165
:10055000B0931C01BF91AF919F918F913F912F91CB
:100560000F900FBE0F901F9018951F920F920FB60D
:100570000F9211242F933F934F935F936F937F9329
:100580008F939F93AF93BF93EF93FF938DE191E090
:100590000E94D001FF91EF91BF91AF919F918F91F8
:1005A0007F916F915F914F913F912F910F900FBE6F
:1005B0000F901F9018951F920F920FB60F92112453
:1005C0002F938F939F93EF93FF93E0912D01F091E1
:1005D0002E018081E0913301F091340182FD12C03F
:1005E0009081809136018F5F8F7320913701821740
:1005F00051F0E0913601F0E0E35EFE4F958F80937D
:10060000360101C08081FF91EF919F918F912F91D1
:100610000F900FBE0F901F901895789484B582604C
:1006200084BD84B5816084BD85B5826085BD85B596
:10063000816085BD80916E00816080936E00109214
:10064000810080918100826080938100809181008F
:100650008160809381008091800081608093800020
:100660008091B10084608093B1008091B00081607E
:100670008093B00080917A00846080937A008091AA
:100680007A00826080937A0080917A008160809302
:100690007A0080917A00806880937A001092C1007D
:1006A00083E00E948C0084E00E948C0085E00E9420
:1006B0008C0086E00E948C0087E00E948C0088E01D
:1006C0000E948C0089E00E948C008AE00E948C00CD
:1006D0008BE00E948C008CE00E948C00E0912D0148
:1006E000F0912E0182E08083E0912901F0912A01AE
:1006F0001082E0912B01F0912C0187E6808310920B
:100700003501E0913101F091320186E08083E09182
:100710002F01F0913001808180618083E0912F0171
:10072000F0913001808188608083E0912F01F09109
:100730003001808180688083E0912F01F091300149
:1007400080818F7D808383E00E94B40090931301A9
:1007500080931201019731F480E090E00E9438020A
:100760000E94220184E00E94B400909313018093C0
:100770001201019731F48AEA90E00E9438020E9447
:10078000220185E00E94B40090931301809312012E
:10079000019731F482E090E00E9438020E94220129
:1007A00086E00E94B4009093130180931201019798
:1007B00031F484E090E00E9438020E94220187E038
:1007C0000E94B4009093130180931201019731F4B9
:1007D00088E090E00E9438020E94220188E00E9496
:1007E000B4009093130180931201019731F480E1DA
:1007F00090E00E9438020E94220189E00E94B40029
:100800009093130180931201019731F480E290E0FC
:100810000E9438020E9422018AE00E94B400909354
:10082000130180931201019731F480E490E00E945B
:1008300038020E9422018BE00E94B40090931301C1
:1008400080931201019731F480E890E00E94380211
:100850000E9422018CE00E94B400909313018093C7
:100860001201019731F48FEF90E00E9438020E944C
:1008700022010E945F0267CFEDE1F1E01382128254
:1008800088EE93E0A0E0B0E084839583A683B783ED
:1008900084E091E09183808385EC90E09587848764
:1008A00084EC90E09787868780EC90E0918B808B3A
:1008B00081EC90E0938B828B82EC90E0958B848B23
:1008C00086EC90E0978B868B118E128E138E148E91
:1008D0000895EE0FFF1F0590F491E02D099481E03B
:0C08E00090E0F8940C947404F894FFCF9E
:1008EC0000000000F1015A0189013D02BA01980192
:0208FC00AC014D
:00000001FF
